{
  "_format": "hh-sol-artifact-1",
  "contractName": "Voting",
  "sourceName": "contracts/Voting.sol",
  "abi": [
    {
      "anonymous": false,
      "inputs": [
        {
          "indexed": true,
          "internalType": "address",
          "name": "voter",
          "type": "address"
        },
        {
          "indexed": false,
          "internalType": "uint256",
          "name": "voteValue",
          "type": "uint256"
        }
      ],
      "name": "VoteCast",
      "type": "event"
    },
    {
      "inputs": [
        {
          "internalType": "bytes",
          "name": "proof",
          "type": "bytes"
        },
        {
          "internalType": "uint256[1]",
          "name": "pubSignals",
          "type": "uint256[1]"
        }
      ],
      "name": "castVote",
      "outputs": [],
      "stateMutability": "nonpayable",
      "type": "function"
    },
    {
      "inputs": [],
      "name": "getResults",
      "outputs": [
        {
          "internalType": "uint256",
          "name": "yes",
          "type": "uint256"
        },
        {
          "internalType": "uint256",
          "name": "no",
          "type": "uint256"
        }
      ],
      "stateMutability": "view",
      "type": "function"
    },
    {
      "inputs": [
        {
          "internalType": "address",
          "name": "",
          "type": "address"
        }
      ],
      "name": "hasVoted",
      "outputs": [
        {
          "internalType": "bool",
          "name": "",
          "type": "bool"
        }
      ],
      "stateMutability": "view",
      "type": "function"
    },
    {
      "inputs": [],
      "name": "noVotes",
      "outputs": [
        {
          "internalType": "uint256",
          "name": "",
          "type": "uint256"
        }
      ],
      "stateMutability": "view",
      "type": "function"
    },
    {
      "inputs": [
        {
          "internalType": "uint256[24]",
          "name": "proof",
          "type": "uint256[24]"
        },
        {
          "internalType": "uint256[1]",
          "name": "pubSignals",
          "type": "uint256[1]"
        }
      ],
      "name": "verifyProof",
      "outputs": [
        {
          "internalType": "bool",
          "name": "",
          "type": "bool"
        }
      ],
      "stateMutability": "view",
      "type": "function"
    },
    {
      "inputs": [],
      "name": "yesVotes",
      "outputs": [
        {
          "internalType": "uint256",
          "name": "",
          "type": "uint256"
        }
      ],
      "stateMutability": "view",
      "type": "function"
    }
  ],
  "bytecode": "0x6080604052348015600f57600080fd5b506123228061001f6000396000f3fe608060405234801561001057600080fd5b50600436106100625760003560e01c806309eef43e146100675780634717f97c14610097578063b13b5c12146100b6578063b5b47f42146100d2578063fb286c65146100f0578063ff7240a71461010e575b600080fd5b610081600480360381019061007c9190611cc0565b61013e565b60405161008e9190611d08565b60405180910390f35b61009f61015e565b6040516100ad929190611d3c565b60405180910390f35b6100d060048036038101906100cb9190611dec565b61016f565b005b6100da6103dd565b6040516100e79190611e4c565b60405180910390f35b6100f86103e3565b6040516101059190611e4c565b60405180910390f35b61012860048036038101906101239190612081565b6103e9565b6040516101359190611d08565b60405180910390f35b60006020528060005260406000206000915054906101000a900460ff1681565b600080600154600254915091509091565b6000803373ffffffffffffffffffffffffffffffffffffffff1673ffffffffffffffffffffffffffffffffffffffff16815260200190815260200160002060009054906101000a900460ff16156101fb576040517f08c379a00000000000000000000000000000000000000000000000000000000081526004016101f290612120565b60405180910390fd5b61024a838381019061020d9190612140565b826001806020026040519081016040528092919082600160200280828437600081840152601f19601f8201169050808301925050505050506103e9565b610289576040517f08c379a0000000000000000000000000000000000000000000000000000000008152600401610280906121ba565b60405180910390fd5b60008160006001811061029f5761029e6121da565b5b6020020135905060008114806102b55750600181145b6102f4576040517f08c379a00000000000000000000000000000000000000000000000000000000081526004016102eb90612255565b60405180910390fd5b60018103610319576001600081548092919061030f906122a4565b9190505550610332565b6002600081548092919061032c906122a4565b91905055505b60016000803373ffffffffffffffffffffffffffffffffffffffff1673ffffffffffffffffffffffffffffffffffffffff16815260200190815260200160002060006101000a81548160ff0219169083151502179055503373ffffffffffffffffffffffffffffffffffffffff167fa36cc2bebb74db33e9f88110a07ef56e1b31b24b4c4f51b54b1664266e29f45b826040516103cf9190611e4c565b60405180910390a250505050565b60025481565b60015481565b6000611bdf565b600080600184846000805b821561042557828405915084820286039050849550809450828202840390508293508092506103fb565b600184111561043357600080fd5b60008612156104425788860195505b85965050505050505092915050565b60405181602084028301815160208301925060005b828410156104a9578185527f30644e72e131a029b85045b68181585d2833e84879b9709143e1f593f0000001845183099150602085019450602084019350610466565b6104d37f30644e72e131a029b85045b68181585d2833e84879b9709143e1f593f0000001836103f0565b91506020850394506020840393508592505b8284111561054f577f30644e72e131a029b85045b68181585d2833e84879b9709143e1f593f00000018551830990507f30644e72e131a029b85045b68181585d2833e84879b9709143e1f593f00000018451830991508084526020850394506020840393506104e5565b81845250505050505050565b7f30644e72e131a029b85045b68181585d2833e84879b9709143e1f593f0000001811061058c576000805260206000f35b50565b61059b6102443561055b565b6105a76102643561055b565b6105b36102843561055b565b6105bf6102a43561055b565b6105cb6102c43561055b565b6105d76102e43561055b565b565b6000806040517f12cbf00f61224e7997c4a433b1e621fb06b0edd6526157e59f9c79581b24a23e81527f1fcf4357b9d834448cf99f8ba9e02fcf84cf08978309592998408537f57488af60208201527f2fd08dcbb0485936be06e0f0465c8e7d697db2c9b45a0fa931fe694f8536f16060408201527f239b2d278486d1236f748b02d363bf2c1c1e4b1058c33c4c810e80ad675cd24060608201527f12cbf00f61224e7997c4a433b1e621fb06b0edd6526157e59f9c79581b24a23e60808201527f10950b1b27596be52b56a62ad7a1288e12b261f9e5687163a3e006dee308749860a0820152600060c0820152600060e0820152600061010082015260006101208201527f1e7ab30060c0cfc0c8f6d5ffc5d14a70072b903ddc7d7c6c34e40148b1cd8aad6101408201527f2b7436f6526a2ebe9f6601701ec82dd8cbc145c8e83cc8d6590ba7f96fb3bc446101608201527f14c6d26d45482d623d462dfce806524885d4e3020d479e470259615dceffdd876101808201527f229d1927f91a97e295f8f0922f37c56503f6e738809fd9292d77318266f955a86101a08201527f048368e8b7c1cb61565f72ff4145ce3c279e691db1d8776bc243b7d463edfd4d6101c08201527f24c3914b6fd56a2b1b260960eb78a9f6ca2cabd67f8f59b4a01732f3dfbb7d956101e082015260008501356102008201526004356102208201526020600401356102408201526044356102608201526020604401356102808201526084356102a08201526020608401356102c08201527f30644e72e131a029b85045b68181585d2833e84879b9709143e1f593f00000016102e082200692508260208501527f30644e72e131a029b85045b68181585d2833e84879b9709143e1f593f0000001602080860120066040850152602084015181526040840151602082015260c4356040820152602060c4013560608201527f30644e72e131a029b85045b68181585d2833e84879b9709143e1f593f0000001608082200691508160008501527f30644e72e131a029b85045b68181585d2833e84879b9709143e1f593f00000018283096102c08501528181526101043560208201526020610104013560408201526101443560608201526020610144013560808201526101843560a08201526020610184013560c08201527f30644e72e131a029b85045b68181585d2833e84879b9709143e1f593f000000160e082200691508160608501528181526102443560208201526102643560408201526102843560608201526102a43560808201526102c43560a08201526102e43560c08201527f30644e72e131a029b85045b68181585d2833e84879b9709143e1f593f000000160e08220068060c08601527f30644e72e131a029b85045b68181585d2833e84879b9709143e1f593f000000183850960a08601527f30644e72e131a029b85045b68181585d2833e84879b9709143e1f593f000000183840992507f30644e72e131a029b85045b68181585d2833e84879b9709143e1f593f000000183840992507f30644e72e131a029b85045b68181585d2833e84879b9709143e1f593f000000183840992508260808601527f30644e72e131a029b85045b68181585d2833e84879b9709143e1f593f0000001806001850301069250826102e0860152826103008601527f30644e72e131a029b85045b68181585d2833e84879b9709143e1f593f000000181820992508260e08601527f30644e72e131a029b85045b68181585d2833e84879b9709143e1f593f00000018184099250826101008601527f30644e72e131a029b85045b68181585d2833e84879b9709143e1f593f00000018184099250826101208601527f30644e72e131a029b85045b68181585d2833e84879b9709143e1f593f00000018184099250826101408601526101c435825260206101c4013560208301526102043560408301526020610204013560608301527f30644e72e131a029b85045b68181585d2833e84879b9709143e1f593f00000016080832006610160860152505050505050565b60017f30644e72e131a029b85045b68181585d2833e84879b9709143e1f593f0000001807f30644e72e131a029b85045b68181585d2833e84879b9709143e1f593f0000001836060860151030106600809610320830152610c0c60026103008401610451565b6102e0820151600191507f30644e72e131a029b85045b68181585d2833e84879b9709143e1f593f00000018161032085015109610320840152505050565b60007f30644e72e131a029b85045b68181585d2833e84879b9709143e1f593f0000001807f30644e72e131a029b85045b68181585d2833e84879b9709143e1f593f000000160008601356103208601510983030106905080610180830152505050565b6101808101517f30644e72e131a029b85045b68181585d2833e84879b9709143e1f593f00000016102c0830151610320840151097f30644e72e131a029b85045b68181585d2833e84879b9709143e1f593f0000001806102a43560208601510961024435087f30644e72e131a029b85045b68181585d2833e84879b9709143e1f593f00000016040850151820890507f30644e72e131a029b85045b68181585d2833e84879b9709143e1f593f0000001806102c43560208701510961026435087f30644e72e131a029b85045b68181585d2833e84879b9709143e1f593f00000016040860151820890507f30644e72e131a029b85045b68181585d2833e84879b9709143e1f593f0000001604086015161028435087f30644e72e131a029b85045b68181585d2833e84879b9709143e1f593f0000001817f30644e72e131a029b85045b68181585d2833e84879b9709143e1f593f0000001848609097f30644e72e131a029b85045b68181585d2833e84879b9709143e1f593f00000016102e435820990507f30644e72e131a029b85045b68181585d2833e84879b9709143e1f593f00000016000880151820990507f30644e72e131a029b85045b68181585d2833e84879b9709143e1f593f000000180867f30644e72e131a029b85045b68181585d2833e84879b9709143e1f593f0000001030687087f30644e72e131a029b85045b68181585d2833e84879b9709143e1f593f000000180837f30644e72e131a029b85045b68181585d2833e84879b9709143e1f593f0000001030682089050806101a08901525050505050505050565b81518152602082015160208201525050565b818152826020820152505050565b81358152602082013560208201525050565b6040518151815260208201516020820152825160408201526020830151606082015260408260808360066107d05a03fa80610f70576000805260206000f35b50505050565b600060405183815284602082015285604082015260408160608360076107d05a03fa915081610fa9576000805260206000f35b825160408201526020830151606082015260408360808360066107d05a03fa915081610fd9576000805260206000f35b505050505050565b600060405183815284602082015285604082015260408360608360076107d05a03fa915081611014576000805260206000f35b505050505050565b61102d836020840151845184610fe1565b505050565b6101c081016040820151604051610100810160405261105360008085610f11565b6110c87f30644e72e131a029b85045b68181585d2833e84879b9709143e1f593f00000016102643561024435097f1fcf4357b9d834448cf99f8ba9e02fcf84cf08978309592998408537f57488af7f12cbf00f61224e7997c4a433b1e621fb06b0edd6526157e59f9c79581b24a23e86610f76565b611117610244357f239b2d278486d1236f748b02d363bf2c1c1e4b1058c33c4c810e80ad675cd2407f2fd08dcbb0485936be06e0f0465c8e7d697db2c9b45a0fa931fe694f8536f16086610f76565b611166610264357f10950b1b27596be52b56a62ad7a1288e12b261f9e5687163a3e006dee30874987f12cbf00f61224e7997c4a433b1e621fb06b0edd6526157e59f9c79581b24a23e86610f76565b6111766102843560008086610f76565b60a08401517f30644e72e131a029b85045b68181585d2833e84879b9709143e1f593f0000001837f30644e72e131a029b85045b68181585d2833e84879b9709143e1f593f0000001836102443508087f30644e72e131a029b85045b68181585d2833e84879b9709143e1f593f0000001847f30644e72e131a029b85045b68181585d2833e84879b9709143e1f593f000000180600286096102643508087f30644e72e131a029b85045b68181585d2833e84879b9709143e1f593f0000001857f30644e72e131a029b85045b68181585d2833e84879b9709143e1f593f000000180600387096102843508087f30644e72e131a029b85045b68181585d2833e84879b9709143e1f593f000000160008901517f30644e72e131a029b85045b68181585d2833e84879b9709143e1f593f0000001837f30644e72e131a029b85045b68181585d2833e84879b9709143e1f593f000000186880909097f30644e72e131a029b85045b68181585d2833e84879b9709143e1f593f00000016102c08a01516103208b01510961130b60c460c08901610f1f565b6113647f30644e72e131a029b85045b68181585d2833e84879b9709143e1f593f00000016101608c01517f30644e72e131a029b85045b68181585d2833e84879b9709143e1f593f00000018486080860c089018961101c565b7f30644e72e131a029b85045b68181585d2833e84879b9709143e1f593f0000001887f30644e72e131a029b85045b68181585d2833e84879b9709143e1f593f0000001806102a43560208f01510961024435080894507f30644e72e131a029b85045b68181585d2833e84879b9709143e1f593f0000001887f30644e72e131a029b85045b68181585d2833e84879b9709143e1f593f0000001806102c43560208f01510961026435080893507f30644e72e131a029b85045b68181585d2833e84879b9709143e1f593f00000016102e4357f30644e72e131a029b85045b68181585d2833e84879b9709143e1f593f000000160208d015160008e0151090992506114f97f30644e72e131a029b85045b68181585d2833e84879b9709143e1f593f0000001847f30644e72e131a029b85045b68181585d2833e84879b9709143e1f593f0000001878909097f24c3914b6fd56a2b1b260960eb78a9f6ca2cabd67f8f59b4a01732f3dfbb7d957f048368e8b7c1cb61565f72ff4145ce3c279e691db1d8776bc243b7d463edfd4d60408b01610fe1565b61150861010460808901610f1f565b61152460808b0151602061014401356101443560808b01610f76565b7f30644e72e131a029b85045b68181585d2833e84879b9709143e1f593f000000160808b015160808c01510961156881602061018401356101843560808c01610f76565b6115846102e08c015160a08a015160808b015160808c01610fe1565b7f30644e72e131a029b85045b68181585d97816a916871ca8d3c208c16d87cfd47602060408a0101517f30644e72e131a029b85045b68181585d97816a916871ca8d3c208c16d87cfd470306602060408a0101527f30644e72e131a029b85045b68181585d97816a916871ca8d3c208c16d87cfd4760a08901517f30644e72e131a029b85045b68181585d97816a916871ca8d3c208c16d87cfd47030660a0890152611630888b610f31565b61163d604089018b610f31565b61164a608089018b610f31565b5050505050505050505050565b610200810161166a6101c0830182610eff565b61168160c083015160206004013560043584610f76565b61169860e083015160206044013560443584610f76565b6116b061010083015160206084013560843584610f76565b6117016101208301517f2b7436f6526a2ebe9f6601701ec82dd8cbc145c8e83cc8d6590ba7f96fb3bc447f1e7ab30060c0cfc0c8f6d5ffc5d14a70072b903ddc7d7c6c34e40148b1cd8aad84610f76565b6117526101408301517f229d1927f91a97e295f8f0922f37c56503f6e738809fd9292d77318266f955a87f14c6d26d45482d623d462dfce806524885d4e3020d479e470259615dceffdd8784610f76565b5050565b7f30644e72e131a029b85045b68181585d2833e84879b9709143e1f593f00000016101a08201517f30644e72e131a029b85045b68181585d2833e84879b9709143e1f593f000000103067f30644e72e131a029b85045b68181585d2833e84879b9709143e1f593f00000018060c08401516102443509820890507f30644e72e131a029b85045b68181585d2833e84879b9709143e1f593f00000018060e08401516102643509820890507f30644e72e131a029b85045b68181585d2833e84879b9709143e1f593f0000001806101008401516102843509820890507f30644e72e131a029b85045b68181585d2833e84879b9709143e1f593f0000001806101208401516102a43509820890507f30644e72e131a029b85045b68181585d2833e84879b9709143e1f593f0000001806101408401516102c43509820890507f30644e72e131a029b85045b68181585d2833e84879b9709143e1f593f0000001806101608401516102e43509820890506118d681600260016102408601610fe1565b5050565b6000604051610240810160405261018081016101c0820161020083016119026101c484610f1f565b61190e61020483610f1f565b61191e610160870151838661101c565b6119288385610f31565b7f30644e72e131a029b85045b68181585d97816a916871ca8d3c208c16d87cfd4760208501517f30644e72e131a029b85045b68181585d97816a916871ca8d3c208c16d87cfd47030660208501527f291c9aac841d6d83f9a6553977cb5c98d5ed9cef0c78d552657629fc36cb4b2260408501527f1c79fe4eb3c6e98f50be5170d2d887c1fde81ff691c9b85500b3040401ed586a60608501527f0747935877f87545ea6a067890e71ba0fcd67cecbfdaded0ef3ec8ed6ce11e1860808501527f267462184de63129a43607cb7a1dd0e2f89c6e82b019c69ece17b1ce389ae8d360a0850152611a2060608701518460c0870161101c565b7f30644e72e131a029b85045b68181585d2833e84879b9709143e1f593f00000016060870151610160880151097f30644e72e131a029b85045b68181585d2833e84879b9709143e1f593f00000017f2b337de1c8c14f22ec9b9e2f96afef3652627366f8170a0a948dad4ac1bd5e8082099050611a9e81848461101c565b611aab8260c08701610f31565b611abc610200880160c08701610f31565b7f30644e72e131a029b85045b68181585d97816a916871ca8d3c208c16d87cfd476020610240018801517f30644e72e131a029b85045b68181585d97816a916871ca8d3c208c16d87cfd470306602061024001880152611b23610240880160c08701610f31565b7f198e9393920d483a7260bfb731fb5d25f1aa493335a9e71297e485b7aef312c26101008601527f1800deef121f1e76426a00665e5c4479674322d4f75edadd46debd5cd992f6ed6101208601527f090689d0585ff075ec9e99ad690c3395bc4b313370b38ef355acdadcd122975b6101408601527f12c85ea5db8c6deb4aab71808dcb408fe3d1e7690c43d37b4ce6cc0166fa7daa6101608601526020856101808760086107d05a03fa855181169650505050505050919050565b6040516103408101604052611bf261058f565b611bfc83826105d9565b611c0581610ba6565b611c0f8382610c4a565b611c1881610cad565b611c2181611032565b611c2a81611657565b611c3381611756565b611c3c816118da565b61034082036040528060005260206000f35b6000604051905090565b600080fd5b600080fd5b600073ffffffffffffffffffffffffffffffffffffffff82169050919050565b6000611c8d82611c62565b9050919050565b611c9d81611c82565b8114611ca857600080fd5b50565b600081359050611cba81611c94565b92915050565b600060208284031215611cd657611cd5611c58565b5b6000611ce484828501611cab565b91505092915050565b60008115159050919050565b611d0281611ced565b82525050565b6000602082019050611d1d6000830184611cf9565b92915050565b6000819050919050565b611d3681611d23565b82525050565b6000604082019050611d516000830185611d2d565b611d5e6020830184611d2d565b9392505050565b600080fd5b600080fd5b600080fd5b60008083601f840112611d8a57611d89611d65565b5b8235905067ffffffffffffffff811115611da757611da6611d6a565b5b602083019150836001820283011115611dc357611dc2611d6f565b5b9250929050565b600081905082602060010282011115611de657611de5611d6f565b5b92915050565b600080600060408486031215611e0557611e04611c58565b5b600084013567ffffffffffffffff811115611e2357611e22611c5d565b5b611e2f86828701611d74565b93509350506020611e4286828701611dca565b9150509250925092565b6000602082019050611e616000830184611d2d565b92915050565b6000601f19601f8301169050919050565b7f4e487b7100000000000000000000000000000000000000000000000000000000600052604160045260246000fd5b611eb082611e67565b810181811067ffffffffffffffff82111715611ecf57611ece611e78565b5b80604052505050565b6000611ee2611c4e565b9050611eee8282611ea7565b919050565b600067ffffffffffffffff821115611f0e57611f0d611e78565b5b602082029050919050565b611f2281611d23565b8114611f2d57600080fd5b50565b600081359050611f3f81611f19565b92915050565b6000611f58611f5384611ef3565b611ed8565b90508060208402830185811115611f7257611f71611d6f565b5b835b81811015611f9b5780611f878882611f30565b845260208401935050602081019050611f74565b5050509392505050565b600082601f830112611fba57611fb9611d65565b5b6018611fc7848285611f45565b91505092915050565b600067ffffffffffffffff821115611feb57611fea611e78565b5b602082029050919050565b600061200961200484611fd0565b611ed8565b9050806020840283018581111561202357612022611d6f565b5b835b8181101561204c57806120388882611f30565b845260208401935050602081019050612025565b5050509392505050565b600082601f83011261206b5761206a611d65565b5b6001612078848285611ff6565b91505092915050565b600080610320838503121561209957612098611c58565b5b60006120a785828601611fa5565b9250506103006120b985828601612056565b9150509250929050565b600082825260208201905092915050565b7f416c726561647920766f74656400000000000000000000000000000000000000600082015250565b600061210a600d836120c3565b9150612115826120d4565b602082019050919050565b60006020820190508181036000830152612139816120fd565b9050919050565b6000610300828403121561215757612156611c58565b5b600061216584828501611fa5565b91505092915050565b7f496e76616c69642070726f6f6600000000000000000000000000000000000000600082015250565b60006121a4600d836120c3565b91506121af8261216e565b602082019050919050565b600060208201905081810360008301526121d381612197565b9050919050565b7f4e487b7100000000000000000000000000000000000000000000000000000000600052603260045260246000fd5b7f566f7465206d7573742062652030206f72203100000000000000000000000000600082015250565b600061223f6013836120c3565b915061224a82612209565b602082019050919050565b6000602082019050818103600083015261226e81612232565b9050919050565b7f4e487b7100000000000000000000000000000000000000000000000000000000600052601160045260246000fd5b60006122af82611d23565b91507fffffffffffffffffffffffffffffffffffffffffffffffffffffffffffffffff82036122e1576122e0612275565b5b60018201905091905056fea2646970667358221220783c2bde3e6f0c2dc9fc2c8291ab9a58fe11678f4d126d99f667b5efb26a1e6c64736f6c634300081c0033",
  "linkReferences": {},
  "deployedLinkReferences": {}
}