{
  "_format": "hh-sol-artifact-1",
  "contractName": "PlonkVerifier",
  "sourceName": "contracts/Verifier.sol",
  "abi": [
    {
      "inputs": [
        {
          "internalType": "uint256[24]",
          "name": "proof",
          "type": "uint256[24]"
        },
        {
          "internalType": "uint256[1]",
          "name": "pubSignals",
          "type": "uint256[1]"
        }
      ],
      "name": "verifyProof",
      "outputs": [
        {
          "internalType": "bool",
          "name": "",
          "type": "bool"
        }
      ],
      "stateMutability": "view",
      "type": "function"
    }
  ],
  "bytecode": "0x6080604052348015600f57600080fd5b50611bb08061001f6000396000f3fe608060405234801561001057600080fd5b506004361061002b5760003560e01c8063ff7240a714610030575b600080fd5b61004a60048036038101906100459190611b02565b610060565b6040516100579190611b5f565b60405180910390f35b6000611856565b600080600184846000805b821561009c5782840591508482028603905084955080945082820284039050829350809250610072565b60018411156100aa57600080fd5b60008612156100b95788860195505b85965050505050505092915050565b60405181602084028301815160208301925060005b82841015610120578185527f30644e72e131a029b85045b68181585d2833e84879b9709143e1f593f00000018451830991506020850194506020840193506100dd565b61014a7f30644e72e131a029b85045b68181585d2833e84879b9709143e1f593f000000183610067565b91506020850394506020840393508592505b828411156101c6577f30644e72e131a029b85045b68181585d2833e84879b9709143e1f593f00000018551830990507f30644e72e131a029b85045b68181585d2833e84879b9709143e1f593f000000184518309915080845260208503945060208403935061015c565b81845250505050505050565b7f30644e72e131a029b85045b68181585d2833e84879b9709143e1f593f00000018110610203576000805260206000f35b50565b610212610244356101d2565b61021e610264356101d2565b61022a610284356101d2565b6102366102a4356101d2565b6102426102c4356101d2565b61024e6102e4356101d2565b565b6000806040517f12cbf00f61224e7997c4a433b1e621fb06b0edd6526157e59f9c79581b24a23e81527f1fcf4357b9d834448cf99f8ba9e02fcf84cf08978309592998408537f57488af60208201527f2fd08dcbb0485936be06e0f0465c8e7d697db2c9b45a0fa931fe694f8536f16060408201527f239b2d278486d1236f748b02d363bf2c1c1e4b1058c33c4c810e80ad675cd24060608201527f12cbf00f61224e7997c4a433b1e621fb06b0edd6526157e59f9c79581b24a23e60808201527f10950b1b27596be52b56a62ad7a1288e12b261f9e5687163a3e006dee308749860a0820152600060c0820152600060e0820152600061010082015260006101208201527f1e7ab30060c0cfc0c8f6d5ffc5d14a70072b903ddc7d7c6c34e40148b1cd8aad6101408201527f2b7436f6526a2ebe9f6601701ec82dd8cbc145c8e83cc8d6590ba7f96fb3bc446101608201527f14c6d26d45482d623d462dfce806524885d4e3020d479e470259615dceffdd876101808201527f229d1927f91a97e295f8f0922f37c56503f6e738809fd9292d77318266f955a86101a08201527f048368e8b7c1cb61565f72ff4145ce3c279e691db1d8776bc243b7d463edfd4d6101c08201527f24c3914b6fd56a2b1b260960eb78a9f6ca2cabd67f8f59b4a01732f3dfbb7d956101e082015260008501356102008201526004356102208201526020600401356102408201526044356102608201526020604401356102808201526084356102a08201526020608401356102c08201527f30644e72e131a029b85045b68181585d2833e84879b9709143e1f593f00000016102e082200692508260208501527f30644e72e131a029b85045b68181585d2833e84879b9709143e1f593f0000001602080860120066040850152602084015181526040840151602082015260c4356040820152602060c4013560608201527f30644e72e131a029b85045b68181585d2833e84879b9709143e1f593f0000001608082200691508160008501527f30644e72e131a029b85045b68181585d2833e84879b9709143e1f593f00000018283096102c08501528181526101043560208201526020610104013560408201526101443560608201526020610144013560808201526101843560a08201526020610184013560c08201527f30644e72e131a029b85045b68181585d2833e84879b9709143e1f593f000000160e082200691508160608501528181526102443560208201526102643560408201526102843560608201526102a43560808201526102c43560a08201526102e43560c08201527f30644e72e131a029b85045b68181585d2833e84879b9709143e1f593f000000160e08220068060c08601527f30644e72e131a029b85045b68181585d2833e84879b9709143e1f593f000000183850960a08601527f30644e72e131a029b85045b68181585d2833e84879b9709143e1f593f000000183840992507f30644e72e131a029b85045b68181585d2833e84879b9709143e1f593f000000183840992507f30644e72e131a029b85045b68181585d2833e84879b9709143e1f593f000000183840992508260808601527f30644e72e131a029b85045b68181585d2833e84879b9709143e1f593f0000001806001850301069250826102e0860152826103008601527f30644e72e131a029b85045b68181585d2833e84879b9709143e1f593f000000181820992508260e08601527f30644e72e131a029b85045b68181585d2833e84879b9709143e1f593f00000018184099250826101008601527f30644e72e131a029b85045b68181585d2833e84879b9709143e1f593f00000018184099250826101208601527f30644e72e131a029b85045b68181585d2833e84879b9709143e1f593f00000018184099250826101408601526101c435825260206101c4013560208301526102043560408301526020610204013560608301527f30644e72e131a029b85045b68181585d2833e84879b9709143e1f593f00000016080832006610160860152505050505050565b60017f30644e72e131a029b85045b68181585d2833e84879b9709143e1f593f0000001807f30644e72e131a029b85045b68181585d2833e84879b9709143e1f593f0000001836060860151030106600809610320830152610883600261030084016100c8565b6102e0820151600191507f30644e72e131a029b85045b68181585d2833e84879b9709143e1f593f00000018161032085015109610320840152505050565b60007f30644e72e131a029b85045b68181585d2833e84879b9709143e1f593f0000001807f30644e72e131a029b85045b68181585d2833e84879b9709143e1f593f000000160008601356103208601510983030106905080610180830152505050565b6101808101517f30644e72e131a029b85045b68181585d2833e84879b9709143e1f593f00000016102c0830151610320840151097f30644e72e131a029b85045b68181585d2833e84879b9709143e1f593f0000001806102a43560208601510961024435087f30644e72e131a029b85045b68181585d2833e84879b9709143e1f593f00000016040850151820890507f30644e72e131a029b85045b68181585d2833e84879b9709143e1f593f0000001806102c43560208701510961026435087f30644e72e131a029b85045b68181585d2833e84879b9709143e1f593f00000016040860151820890507f30644e72e131a029b85045b68181585d2833e84879b9709143e1f593f0000001604086015161028435087f30644e72e131a029b85045b68181585d2833e84879b9709143e1f593f0000001817f30644e72e131a029b85045b68181585d2833e84879b9709143e1f593f0000001848609097f30644e72e131a029b85045b68181585d2833e84879b9709143e1f593f00000016102e435820990507f30644e72e131a029b85045b68181585d2833e84879b9709143e1f593f00000016000880151820990507f30644e72e131a029b85045b68181585d2833e84879b9709143e1f593f000000180867f30644e72e131a029b85045b68181585d2833e84879b9709143e1f593f0000001030687087f30644e72e131a029b85045b68181585d2833e84879b9709143e1f593f000000180837f30644e72e131a029b85045b68181585d2833e84879b9709143e1f593f0000001030682089050806101a08901525050505050505050565b81518152602082015160208201525050565b818152826020820152505050565b81358152602082013560208201525050565b6040518151815260208201516020820152825160408201526020830151606082015260408260808360066107d05a03fa80610be7576000805260206000f35b50505050565b600060405183815284602082015285604082015260408160608360076107d05a03fa915081610c20576000805260206000f35b825160408201526020830151606082015260408360808360066107d05a03fa915081610c50576000805260206000f35b505050505050565b600060405183815284602082015285604082015260408360608360076107d05a03fa915081610c8b576000805260206000f35b505050505050565b610ca4836020840151845184610c58565b505050565b6101c0810160408201516040516101008101604052610cca60008085610b88565b610d3f7f30644e72e131a029b85045b68181585d2833e84879b9709143e1f593f00000016102643561024435097f1fcf4357b9d834448cf99f8ba9e02fcf84cf08978309592998408537f57488af7f12cbf00f61224e7997c4a433b1e621fb06b0edd6526157e59f9c79581b24a23e86610bed565b610d8e610244357f239b2d278486d1236f748b02d363bf2c1c1e4b1058c33c4c810e80ad675cd2407f2fd08dcbb0485936be06e0f0465c8e7d697db2c9b45a0fa931fe694f8536f16086610bed565b610ddd610264357f10950b1b27596be52b56a62ad7a1288e12b261f9e5687163a3e006dee30874987f12cbf00f61224e7997c4a433b1e621fb06b0edd6526157e59f9c79581b24a23e86610bed565b610ded6102843560008086610bed565b60a08401517f30644e72e131a029b85045b68181585d2833e84879b9709143e1f593f0000001837f30644e72e131a029b85045b68181585d2833e84879b9709143e1f593f0000001836102443508087f30644e72e131a029b85045b68181585d2833e84879b9709143e1f593f0000001847f30644e72e131a029b85045b68181585d2833e84879b9709143e1f593f000000180600286096102643508087f30644e72e131a029b85045b68181585d2833e84879b9709143e1f593f0000001857f30644e72e131a029b85045b68181585d2833e84879b9709143e1f593f000000180600387096102843508087f30644e72e131a029b85045b68181585d2833e84879b9709143e1f593f000000160008901517f30644e72e131a029b85045b68181585d2833e84879b9709143e1f593f0000001837f30644e72e131a029b85045b68181585d2833e84879b9709143e1f593f000000186880909097f30644e72e131a029b85045b68181585d2833e84879b9709143e1f593f00000016102c08a01516103208b015109610f8260c460c08901610b96565b610fdb7f30644e72e131a029b85045b68181585d2833e84879b9709143e1f593f00000016101608c01517f30644e72e131a029b85045b68181585d2833e84879b9709143e1f593f00000018486080860c0890189610c93565b7f30644e72e131a029b85045b68181585d2833e84879b9709143e1f593f0000001887f30644e72e131a029b85045b68181585d2833e84879b9709143e1f593f0000001806102a43560208f01510961024435080894507f30644e72e131a029b85045b68181585d2833e84879b9709143e1f593f0000001887f30644e72e131a029b85045b68181585d2833e84879b9709143e1f593f0000001806102c43560208f01510961026435080893507f30644e72e131a029b85045b68181585d2833e84879b9709143e1f593f00000016102e4357f30644e72e131a029b85045b68181585d2833e84879b9709143e1f593f000000160208d015160008e0151090992506111707f30644e72e131a029b85045b68181585d2833e84879b9709143e1f593f0000001847f30644e72e131a029b85045b68181585d2833e84879b9709143e1f593f0000001878909097f24c3914b6fd56a2b1b260960eb78a9f6ca2cabd67f8f59b4a01732f3dfbb7d957f048368e8b7c1cb61565f72ff4145ce3c279e691db1d8776bc243b7d463edfd4d60408b01610c58565b61117f61010460808901610b96565b61119b60808b0151602061014401356101443560808b01610bed565b7f30644e72e131a029b85045b68181585d2833e84879b9709143e1f593f000000160808b015160808c0151096111df81602061018401356101843560808c01610bed565b6111fb6102e08c015160a08a015160808b015160808c01610c58565b7f30644e72e131a029b85045b68181585d97816a916871ca8d3c208c16d87cfd47602060408a0101517f30644e72e131a029b85045b68181585d97816a916871ca8d3c208c16d87cfd470306602060408a0101527f30644e72e131a029b85045b68181585d97816a916871ca8d3c208c16d87cfd4760a08901517f30644e72e131a029b85045b68181585d97816a916871ca8d3c208c16d87cfd47030660a08901526112a7888b610ba8565b6112b4604089018b610ba8565b6112c1608089018b610ba8565b5050505050505050505050565b61020081016112e16101c0830182610b76565b6112f860c083015160206004013560043584610bed565b61130f60e083015160206044013560443584610bed565b61132761010083015160206084013560843584610bed565b6113786101208301517f2b7436f6526a2ebe9f6601701ec82dd8cbc145c8e83cc8d6590ba7f96fb3bc447f1e7ab30060c0cfc0c8f6d5ffc5d14a70072b903ddc7d7c6c34e40148b1cd8aad84610bed565b6113c96101408301517f229d1927f91a97e295f8f0922f37c56503f6e738809fd9292d77318266f955a87f14c6d26d45482d623d462dfce806524885d4e3020d479e470259615dceffdd8784610bed565b5050565b7f30644e72e131a029b85045b68181585d2833e84879b9709143e1f593f00000016101a08201517f30644e72e131a029b85045b68181585d2833e84879b9709143e1f593f000000103067f30644e72e131a029b85045b68181585d2833e84879b9709143e1f593f00000018060c08401516102443509820890507f30644e72e131a029b85045b68181585d2833e84879b9709143e1f593f00000018060e08401516102643509820890507f30644e72e131a029b85045b68181585d2833e84879b9709143e1f593f0000001806101008401516102843509820890507f30644e72e131a029b85045b68181585d2833e84879b9709143e1f593f0000001806101208401516102a43509820890507f30644e72e131a029b85045b68181585d2833e84879b9709143e1f593f0000001806101408401516102c43509820890507f30644e72e131a029b85045b68181585d2833e84879b9709143e1f593f0000001806101608401516102e435098208905061154d81600260016102408601610c58565b5050565b6000604051610240810160405261018081016101c0820161020083016115796101c484610b96565b61158561020483610b96565b6115956101608701518386610c93565b61159f8385610ba8565b7f30644e72e131a029b85045b68181585d97816a916871ca8d3c208c16d87cfd4760208501517f30644e72e131a029b85045b68181585d97816a916871ca8d3c208c16d87cfd47030660208501527f291c9aac841d6d83f9a6553977cb5c98d5ed9cef0c78d552657629fc36cb4b2260408501527f1c79fe4eb3c6e98f50be5170d2d887c1fde81ff691c9b85500b3040401ed586a60608501527f0747935877f87545ea6a067890e71ba0fcd67cecbfdaded0ef3ec8ed6ce11e1860808501527f267462184de63129a43607cb7a1dd0e2f89c6e82b019c69ece17b1ce389ae8d360a085015261169760608701518460c08701610c93565b7f30644e72e131a029b85045b68181585d2833e84879b9709143e1f593f00000016060870151610160880151097f30644e72e131a029b85045b68181585d2833e84879b9709143e1f593f00000017f2b337de1c8c14f22ec9b9e2f96afef3652627366f8170a0a948dad4ac1bd5e8082099050611715818484610c93565b6117228260c08701610ba8565b611733610200880160c08701610ba8565b7f30644e72e131a029b85045b68181585d97816a916871ca8d3c208c16d87cfd476020610240018801517f30644e72e131a029b85045b68181585d97816a916871ca8d3c208c16d87cfd47030660206102400188015261179a610240880160c08701610ba8565b7f198e9393920d483a7260bfb731fb5d25f1aa493335a9e71297e485b7aef312c26101008601527f1800deef121f1e76426a00665e5c4479674322d4f75edadd46debd5cd992f6ed6101208601527f090689d0585ff075ec9e99ad690c3395bc4b313370b38ef355acdadcd122975b6101408601527f12c85ea5db8c6deb4aab71808dcb408fe3d1e7690c43d37b4ce6cc0166fa7daa6101608601526020856101808760086107d05a03fa855181169650505050505050919050565b6040516103408101604052611869610206565b6118738382610250565b61187c8161081d565b61188683826108c1565b61188f81610924565b61189881610ca9565b6118a1816112ce565b6118aa816113cd565b6118b381611551565b61034082036040528060005260206000f35b6000604051905090565b600080fd5b600080fd5b6000601f19601f8301169050919050565b7f4e487b7100000000000000000000000000000000000000000000000000000000600052604160045260246000fd5b611922826118d9565b810181811067ffffffffffffffff82111715611941576119406118ea565b5b80604052505050565b60006119546118c5565b90506119608282611919565b919050565b600067ffffffffffffffff8211156119805761197f6118ea565b5b602082029050919050565b600080fd5b6000819050919050565b6119a381611990565b81146119ae57600080fd5b50565b6000813590506119c08161199a565b92915050565b60006119d96119d484611965565b61194a565b905080602084028301858111156119f3576119f261198b565b5b835b81811015611a1c5780611a0888826119b1565b8452602084019350506020810190506119f5565b5050509392505050565b600082601f830112611a3b57611a3a6118d4565b5b6018611a488482856119c6565b91505092915050565b600067ffffffffffffffff821115611a6c57611a6b6118ea565b5b602082029050919050565b6000611a8a611a8584611a51565b61194a565b90508060208402830185811115611aa457611aa361198b565b5b835b81811015611acd5780611ab988826119b1565b845260208401935050602081019050611aa6565b5050509392505050565b600082601f830112611aec57611aeb6118d4565b5b6001611af9848285611a77565b91505092915050565b6000806103208385031215611b1a57611b196118cf565b5b6000611b2885828601611a26565b925050610300611b3a85828601611ad7565b9150509250929050565b60008115159050919050565b611b5981611b44565b82525050565b6000602082019050611b746000830184611b50565b9291505056fea264697066735822122016acc5f319e66f0a4c26101451a7d592aca2cce269106abb0d99dff8b43b988464736f6c634300081c0033",
  "linkReferences": {},
  "deployedLinkReferences": {}
}